{
  "_format": "hh-sol-artifact-1",
  "contractName": "SeedPoolInfoContract",
  "sourceName": "contracts/SeedPoolInfoContract.sol",
  "abi": [
    {
      "inputs": [],
      "stateMutability": "nonpayable",
      "type": "constructor"
    },
    {
      "inputs": [],
      "name": "getSeedPoolInfo",
      "outputs": [
        {
          "internalType": "string",
          "name": "",
          "type": "string"
        }
      ],
      "stateMutability": "view",
      "type": "function"
    },
    {
      "inputs": [
        {
          "internalType": "string",
          "name": "_seedPoolInfo",
          "type": "string"
        }
      ],
      "name": "publish",
      "outputs": [],
      "stateMutability": "nonpayable",
      "type": "function"
    }
  ],
  "bytecode": "0x608060405234801561001057600080fd5b50336000806101000a81548173ffffffffffffffffffffffffffffffffffffffff021916908373ffffffffffffffffffffffffffffffffffffffff160217905550610534806100606000396000f3fe608060405234801561001057600080fd5b50600436106100365760003560e01c8063243e280b1461003b578063247b204614610057575b600080fd5b610055600480360381019061005091906102dc565b610075565b005b61005f6100e7565b60405161006c9190610356565b60405180910390f35b60008054906101000a900473ffffffffffffffffffffffffffffffffffffffff1673ffffffffffffffffffffffffffffffffffffffff163373ffffffffffffffffffffffffffffffffffffffff16146100cd57600080fd5b80600190805190602001906100e39291906101d1565b5050565b606060008054906101000a900473ffffffffffffffffffffffffffffffffffffffff1673ffffffffffffffffffffffffffffffffffffffff163373ffffffffffffffffffffffffffffffffffffffff161461014157600080fd5b6001805461014e9061042c565b80601f016020809104026020016040519081016040528092919081815260200182805461017a9061042c565b80156101c75780601f1061019c576101008083540402835291602001916101c7565b820191906000526020600020905b8154815290600101906020018083116101aa57829003601f168201915b5050505050905090565b8280546101dd9061042c565b90600052602060002090601f0160209004810192826101ff5760008555610246565b82601f1061021857805160ff1916838001178555610246565b82800160010185558215610246579182015b8281111561024557825182559160200191906001019061022a565b5b5090506102539190610257565b5090565b5b80821115610270576000816000905550600101610258565b5090565b60006102876102828461039d565b610378565b90508281526020810184848401111561029f57600080fd5b6102aa8482856103ea565b509392505050565b600082601f8301126102c357600080fd5b81356102d3848260208601610274565b91505092915050565b6000602082840312156102ee57600080fd5b600082013567ffffffffffffffff81111561030857600080fd5b610314848285016102b2565b91505092915050565b6000610328826103ce565b61033281856103d9565b93506103428185602086016103f9565b61034b816104ed565b840191505092915050565b60006020820190508181036000830152610370818461031d565b905092915050565b6000610382610393565b905061038e828261045e565b919050565b6000604051905090565b600067ffffffffffffffff8211156103b8576103b76104be565b5b6103c1826104ed565b9050602081019050919050565b600081519050919050565b600082825260208201905092915050565b82818337600083830152505050565b60005b838110156104175780820151818401526020810190506103fc565b83811115610426576000848401525b50505050565b6000600282049050600182168061044457607f821691505b602082108114156104585761045761048f565b5b50919050565b610467826104ed565b810181811067ffffffffffffffff82111715610486576104856104be565b5b80604052505050565b7f4e487b7100000000000000000000000000000000000000000000000000000000600052602260045260246000fd5b7f4e487b7100000000000000000000000000000000000000000000000000000000600052604160045260246000fd5b6000601f19601f830116905091905056fea26469706673582212203b4927ce89dbd0234de8dba2df11fbdca0d72078f9f69a9ff7084b232e23318064736f6c63430008040033",
  "linkReferences": {},
  "deployedLinkReferences": {}
}