{
  "_format": "hh-sol-artifact-1",
  "contractName": "BetSlips",
  "sourceName": "contracts/BetSlips.sol",
  "abi": [
    {
      "inputs": [],
      "stateMutability": "nonpayable",
      "type": "constructor"
    },
    {
      "anonymous": false,
      "inputs": [
        {
          "indexed": false,
          "internalType": "uint256",
          "name": "betSlipPlacedId",
          "type": "uint256"
        },
        {
          "indexed": true,
          "internalType": "string",
          "name": "fromAddress",
          "type": "string"
        },
        {
          "indexed": true,
          "internalType": "string",
          "name": "gameCode",
          "type": "string"
        },
        {
          "indexed": false,
          "internalType": "string",
          "name": "gameResult",
          "type": "string"
        }
      ],
      "name": "betSlipChanged",
      "type": "event"
    },
    {
      "anonymous": false,
      "inputs": [
        {
          "indexed": false,
          "internalType": "uint256",
          "name": "betSlipPlacedId",
          "type": "uint256"
        },
        {
          "indexed": true,
          "internalType": "string",
          "name": "fromAddress",
          "type": "string"
        },
        {
          "indexed": true,
          "internalType": "string",
          "name": "gameCode",
          "type": "string"
        },
        {
          "indexed": false,
          "internalType": "uint256",
          "name": "createdDate",
          "type": "uint256"
        }
      ],
      "name": "betSlipPlaced",
      "type": "event"
    },
    {
      "anonymous": false,
      "inputs": [
        {
          "indexed": false,
          "internalType": "address",
          "name": "from",
          "type": "address"
        },
        {
          "indexed": false,
          "internalType": "address",
          "name": "token",
          "type": "address"
        },
        {
          "indexed": false,
          "internalType": "uint256",
          "name": "value",
          "type": "uint256"
        }
      ],
      "name": "tokensReceived",
      "type": "event"
    },
    {
      "inputs": [],
      "name": "betSlipsAddress",
      "outputs": [
        {
          "internalType": "address",
          "name": "",
          "type": "address"
        }
      ],
      "stateMutability": "view",
      "type": "function"
    },
    {
      "inputs": [
        {
          "internalType": "string",
          "name": "gameCode",
          "type": "string"
        },
        {
          "internalType": "string",
          "name": "playerChoice",
          "type": "string"
        },
        {
          "internalType": "address",
          "name": "token",
          "type": "address"
        },
        {
          "internalType": "uint256",
          "name": "amount",
          "type": "uint256"
        }
      ],
      "name": "depositAndPlaceBetSlip",
      "outputs": [
        {
          "internalType": "bool",
          "name": "",
          "type": "bool"
        }
      ],
      "stateMutability": "nonpayable",
      "type": "function"
    },
    {
      "inputs": [
        {
          "internalType": "string",
          "name": "gameCode",
          "type": "string"
        },
        {
          "internalType": "string",
          "name": "playerChoice",
          "type": "string"
        },
        {
          "internalType": "address",
          "name": "token",
          "type": "address"
        },
        {
          "internalType": "uint256",
          "name": "amount",
          "type": "uint256"
        },
        {
          "internalType": "uint256",
          "name": "approval",
          "type": "uint256"
        },
        {
          "internalType": "uint256",
          "name": "deadline",
          "type": "uint256"
        },
        {
          "internalType": "uint8",
          "name": "v",
          "type": "uint8"
        },
        {
          "internalType": "bytes32",
          "name": "r",
          "type": "bytes32"
        },
        {
          "internalType": "bytes32",
          "name": "s",
          "type": "bytes32"
        }
      ],
      "name": "depositAndPlaceBetSlipWithPermit",
      "outputs": [
        {
          "internalType": "bool",
          "name": "",
          "type": "bool"
        }
      ],
      "stateMutability": "nonpayable",
      "type": "function"
    },
    {
      "inputs": [
        {
          "internalType": "uint256",
          "name": "index",
          "type": "uint256"
        }
      ],
      "name": "getBetSlip",
      "outputs": [
        {
          "components": [
            {
              "internalType": "uint256",
              "name": "betAmount",
              "type": "uint256"
            },
            {
              "internalType": "uint256",
              "name": "returnAmount",
              "type": "uint256"
            },
            {
              "internalType": "string",
              "name": "gameCode",
              "type": "string"
            },
            {
              "internalType": "string",
              "name": "playerChoice",
              "type": "string"
            },
            {
              "internalType": "string",
              "name": "gameResult",
              "type": "string"
            },
            {
              "internalType": "uint256",
              "name": "createdDate",
              "type": "uint256"
            },
            {
              "internalType": "uint256",
              "name": "lastModifiedDate",
              "type": "uint256"
            },
            {
              "internalType": "string",
              "name": "from",
              "type": "string"
            },
            {
              "internalType": "enum BetSlips.Status",
              "name": "currentStatus",
              "type": "uint8"
            }
          ],
          "internalType": "struct BetSlips.BetSlip",
          "name": "",
          "type": "tuple"
        }
      ],
      "stateMutability": "view",
      "type": "function"
    },
    {
      "inputs": [],
      "name": "owner",
      "outputs": [
        {
          "internalType": "address",
          "name": "",
          "type": "address"
        }
      ],
      "stateMutability": "view",
      "type": "function"
    },
    {
      "inputs": [
        {
          "internalType": "string",
          "name": "gameCode",
          "type": "string"
        },
        {
          "internalType": "string",
          "name": "playerChoice",
          "type": "string"
        },
        {
          "internalType": "uint256",
          "name": "amount",
          "type": "uint256"
        }
      ],
      "name": "placeBetSlip",
      "outputs": [
        {
          "internalType": "bool",
          "name": "",
          "type": "bool"
        }
      ],
      "stateMutability": "nonpayable",
      "type": "function"
    },
    {
      "inputs": [
        {
          "internalType": "uint256",
          "name": "index",
          "type": "uint256"
        },
        {
          "internalType": "string",
          "name": "gameResult",
          "type": "string"
        }
      ],
      "name": "setBetSlip",
      "outputs": [
        {
          "components": [
            {
              "internalType": "uint256",
              "name": "betAmount",
              "type": "uint256"
            },
            {
              "internalType": "uint256",
              "name": "returnAmount",
              "type": "uint256"
            },
            {
              "internalType": "string",
              "name": "gameCode",
              "type": "string"
            },
            {
              "internalType": "string",
              "name": "playerChoice",
              "type": "string"
            },
            {
              "internalType": "string",
              "name": "gameResult",
              "type": "string"
            },
            {
              "internalType": "uint256",
              "name": "createdDate",
              "type": "uint256"
            },
            {
              "internalType": "uint256",
              "name": "lastModifiedDate",
              "type": "uint256"
            },
            {
              "internalType": "string",
              "name": "from",
              "type": "string"
            },
            {
              "internalType": "enum BetSlips.Status",
              "name": "currentStatus",
              "type": "uint8"
            }
          ],
          "internalType": "struct BetSlips.BetSlip",
          "name": "",
          "type": "tuple"
        }
      ],
      "stateMutability": "nonpayable",
      "type": "function"
    },
    {
      "inputs": [
        {
          "internalType": "address",
          "name": "tokenERC20",
          "type": "address"
        },
        {
          "internalType": "uint256",
          "name": "amount",
          "type": "uint256"
        }
      ],
      "name": "withdrawERC20",
      "outputs": [],
      "stateMutability": "nonpayable",
      "type": "function"
    },
    {
      "stateMutability": "payable",
      "type": "receive"
    }
  ],
  "bytecode": "0x608060405234801561001057600080fd5b50336000806101000a81548173ffffffffffffffffffffffffffffffffffffffff021916908373ffffffffffffffffffffffffffffffffffffffff16021790555030600260006101000a81548173ffffffffffffffffffffffffffffffffffffffff021916908373ffffffffffffffffffffffffffffffffffffffff16021790555061236e806100a16000396000f3fe60806040526004361061007f5760003560e01c80638da5cb5b1161004e5780638da5cb5b1461016d5780639464309714610198578063a1db9782146101d5578063a3109b29146101fe57610086565b80630b41c5b31461008b57806332d268a5146100b65780633d73e16d146100f35780634e95ad901461013057610086565b3661008657005b600080fd5b34801561009757600080fd5b506100a061023b565b6040516100ad9190611d77565b60405180910390f35b3480156100c257600080fd5b506100dd60048036038101906100d8919061198e565b610261565b6040516100ea9190611eb3565b60405180910390f35b3480156100ff57600080fd5b5061011a6004803603810190610115919061190f565b610586565b6040516101279190611e38565b60405180910390f35b34801561013c57600080fd5b5061015760048036038101906101529190611819565b610812565b6040516101649190611e38565b60405180910390f35b34801561017957600080fd5b506101826109f4565b60405161018f9190611d77565b60405180910390f35b3480156101a457600080fd5b506101bf60048036038101906101ba9190611786565b610a18565b6040516101cc9190611e38565b60405180910390f35b3480156101e157600080fd5b506101fc60048036038101906101f79190611721565b610b3b565b005b34801561020a57600080fd5b50610225600480360381019061022091906119e0565b610d12565b6040516102329190611eb3565b60405180910390f35b600260009054906101000a900473ffffffffffffffffffffffffffffffffffffffff1681565b610269611514565b600360008381526020019081526020016000206040518061012001604052908160008201548152602001600182015481526020016002820180546102ac90612097565b80601f01602080910402602001604051908101604052809291908181526020018280546102d890612097565b80156103255780601f106102fa57610100808354040283529160200191610325565b820191906000526020600020905b81548152906001019060200180831161030857829003601f168201915b5050505050815260200160038201805461033e90612097565b80601f016020809104026020016040519081016040528092919081815260200182805461036a90612097565b80156103b75780601f1061038c576101008083540402835291602001916103b7565b820191906000526020600020905b81548152906001019060200180831161039a57829003601f168201915b505050505081526020016004820180546103d090612097565b80601f01602080910402602001604051908101604052809291908181526020018280546103fc90612097565b80156104495780601f1061041e57610100808354040283529160200191610449565b820191906000526020600020905b81548152906001019060200180831161042c57829003601f168201915b50505050508152602001600582015481526020016006820154815260200160078201805461047690612097565b80601f01602080910402602001604051908101604052809291908181526020018280546104a290612097565b80156104ef5780601f106104c4576101008083540402835291602001916104ef565b820191906000526020600020905b8154815290600101906020018083116104d257829003601f168201915b505050505081526020016008820160009054906101000a900460ff166002811115610543577f4e487b7100000000000000000000000000000000000000000000000000000000600052602160045260246000fd5b600281111561057b577f4e487b7100000000000000000000000000000000000000000000000000000000600052602160045260246000fd5b815250509050919050565b60008060405180610120016040528084815260200160008152602001868152602001858152602001604051806020016040528060008152508152602001607b815260200161014181526020016040518060400160405280600981526020017f3132333132333433310000000000000000000000000000000000000000000000815250815260200160016002811115610647577f4e487b7100000000000000000000000000000000000000000000000000000000600052602160045260246000fd5b81525090508060036000600154815260200190815260200160002060008201518160000155602082015181600101556040820151816002019080519060200190610692929190611598565b5060608201518160030190805190602001906106af929190611598565b5060808201518160040190805190602001906106cc929190611598565b5060a0820151816005015560c0820151816006015560e08201518160070190805190602001906106fd929190611598565b506101008201518160080160006101000a81548160ff02191690836002811115610750577f4e487b7100000000000000000000000000000000000000000000000000000000600052602160045260246000fd5b0217905550905050846040516107669190611d49565b60405180910390206003600060015481526020019081526020016000206007016040516107939190611d60565b60405180910390207f594ab88d4048f250f50f254cdaf731637039c6f997cc2c4372611f86f16688ef600154600360006001548152602001908152602001600020600501546040516107e6929190611f05565b60405180910390a360016000815480929190610801906120fa565b919050555060019150509392505050565b600086861015610857576040517f08c379a000000000000000000000000000000000000000000000000000000000815260040161084e90611e93565b60405180910390fd5b8773ffffffffffffffffffffffffffffffffffffffff1663d505accf333089898989896040518863ffffffff1660e01b815260040161089c9796959493929190611dc9565b600060405180830381600087803b1580156108b657600080fd5b505af11580156108ca573d6000803e3d6000fd5b505050508773ffffffffffffffffffffffffffffffffffffffff166323b872dd33308a6040518463ffffffff1660e01b815260040161090b93929190611d92565b602060405180830381600087803b15801561092557600080fd5b505af1158015610939573d6000803e3d6000fd5b505050506040513d601f19601f8201168201806040525081019061095d919061175d565b61099c576040517f08c379a000000000000000000000000000000000000000000000000000000000815260040161099390611e53565b60405180910390fd5b7f29e9a3b911f7cef663ceb02b74ee3fbf99b145900fadf93d14a20d9a5e8e8b3c3389896040516109cf93929190611d92565b60405180910390a16109e28a8a89610586565b50600190509998505050505050505050565b60008054906101000a900473ffffffffffffffffffffffffffffffffffffffff1681565b60008273ffffffffffffffffffffffffffffffffffffffff166323b872dd3330856040518463ffffffff1660e01b8152600401610a5793929190611d92565b602060405180830381600087803b158015610a7157600080fd5b505af1158015610a85573d6000803e3d6000fd5b505050506040513d601f19601f82011682018060405250810190610aa9919061175d565b610ae8576040517f08c379a0000000000000000000000000000000000000000000000000000000008152600401610adf90611e53565b60405180910390fd5b7f29e9a3b911f7cef663ceb02b74ee3fbf99b145900fadf93d14a20d9a5e8e8b3c338484604051610b1b93929190611d92565b60405180910390a1610b2e858584610586565b5060019050949350505050565b60008054906101000a900473ffffffffffffffffffffffffffffffffffffffff1673ffffffffffffffffffffffffffffffffffffffff163373ffffffffffffffffffffffffffffffffffffffff1614610b9357600080fd5b8173ffffffffffffffffffffffffffffffffffffffff166370a08231306040518263ffffffff1660e01b8152600401610bcc9190611d77565b60206040518083038186803b158015610be457600080fd5b505afa158015610bf8573d6000803e3d6000fd5b505050506040513d601f19601f82011682018060405250810190610c1c91906119b7565b811115610c5e576040517f08c379a0000000000000000000000000000000000000000000000000000000008152600401610c5590611e73565b60405180910390fd5b8173ffffffffffffffffffffffffffffffffffffffff166323b872dd3060008054906101000a900473ffffffffffffffffffffffffffffffffffffffff16846040518463ffffffff1660e01b8152600401610cbb93929190611d92565b602060405180830381600087803b158015610cd557600080fd5b505af1158015610ce9573d6000803e3d6000fd5b505050506040513d601f19601f82011682018060405250810190610d0d919061175d565b505050565b610d1a611514565b600060036000858152602001908152602001600020604051806101200160405290816000820154815260200160018201548152602001600282018054610d5f90612097565b80601f0160208091040260200160405190810160405280929190818152602001828054610d8b90612097565b8015610dd85780601f10610dad57610100808354040283529160200191610dd8565b820191906000526020600020905b815481529060010190602001808311610dbb57829003601f168201915b50505050508152602001600382018054610df190612097565b80601f0160208091040260200160405190810160405280929190818152602001828054610e1d90612097565b8015610e6a5780601f10610e3f57610100808354040283529160200191610e6a565b820191906000526020600020905b815481529060010190602001808311610e4d57829003601f168201915b50505050508152602001600482018054610e8390612097565b80601f0160208091040260200160405190810160405280929190818152602001828054610eaf90612097565b8015610efc5780601f10610ed157610100808354040283529160200191610efc565b820191906000526020600020905b815481529060010190602001808311610edf57829003601f168201915b505050505081526020016005820154815260200160068201548152602001600782018054610f2990612097565b80601f0160208091040260200160405190810160405280929190818152602001828054610f5590612097565b8015610fa25780601f10610f7757610100808354040283529160200191610fa2565b820191906000526020600020905b815481529060010190602001808311610f8557829003601f168201915b505050505081526020016008820160009054906101000a900460ff166002811115610ff6577f4e487b7100000000000000000000000000000000000000000000000000000000600052602160045260246000fd5b600281111561102e577f4e487b7100000000000000000000000000000000000000000000000000000000600052602160045260246000fd5b815250509050828160800181905250428160c001818152505080600360008681526020019081526020016000206000820151816000015560208201518160010155604082015181600201908051906020019061108b929190611598565b5060608201518160030190805190602001906110a8929190611598565b5060808201518160040190805190602001906110c5929190611598565b5060a0820151816005015560c0820151816006015560e08201518160070190805190602001906110f6929190611598565b506101008201518160080160006101000a81548160ff02191690836002811115611149577f4e487b7100000000000000000000000000000000000000000000000000000000600052602160045260246000fd5b0217905550905050600360008581526020019081526020016000206002016040516111749190611d60565b60405180910390206003600086815260200190815260200160002060070160405161119f9190611d60565b60405180910390207f8c9b7d0266aaff710d9ae2ba5cf40eebc8e454722e8205838715f1324616424c86600360008981526020019081526020016000206004016040516111ed929190611ed5565b60405180910390a36003600085815260200190815260200160002060405180610120016040529081600082015481526020016001820154815260200160028201805461123890612097565b80601f016020809104026020016040519081016040528092919081815260200182805461126490612097565b80156112b15780601f10611286576101008083540402835291602001916112b1565b820191906000526020600020905b81548152906001019060200180831161129457829003601f168201915b505050505081526020016003820180546112ca90612097565b80601f01602080910402602001604051908101604052809291908181526020018280546112f690612097565b80156113435780601f1061131857610100808354040283529160200191611343565b820191906000526020600020905b81548152906001019060200180831161132657829003601f168201915b5050505050815260200160048201805461135c90612097565b80601f016020809104026020016040519081016040528092919081815260200182805461138890612097565b80156113d55780601f106113aa576101008083540402835291602001916113d5565b820191906000526020600020905b8154815290600101906020018083116113b857829003601f168201915b50505050508152602001600582015481526020016006820154815260200160078201805461140290612097565b80601f016020809104026020016040519081016040528092919081815260200182805461142e90612097565b801561147b5780601f106114505761010080835404028352916020019161147b565b820191906000526020600020905b81548152906001019060200180831161145e57829003601f168201915b505050505081526020016008820160009054906101000a900460ff1660028111156114cf577f4e487b7100000000000000000000000000000000000000000000000000000000600052602160045260246000fd5b6002811115611507577f4e487b7100000000000000000000000000000000000000000000000000000000600052602160045260246000fd5b8152505091505092915050565b604051806101200160405280600081526020016000815260200160608152602001606081526020016060815260200160008152602001600081526020016060815260200160006002811115611592577f4e487b7100000000000000000000000000000000000000000000000000000000600052602160045260246000fd5b81525090565b8280546115a490612097565b90600052602060002090601f0160209004810192826115c6576000855561160d565b82601f106115df57805160ff191683800117855561160d565b8280016001018555821561160d579182015b8281111561160c5782518255916020019190600101906115f1565b5b50905061161a919061161e565b5090565b5b8082111561163757600081600090555060010161161f565b5090565b600061164e61164984611f53565b611f2e565b90508281526020810184848401111561166657600080fd5b611671848285612055565b509392505050565b600081359050611688816122c5565b92915050565b60008151905061169d816122dc565b92915050565b6000813590506116b2816122f3565b92915050565b600082601f8301126116c957600080fd5b81356116d984826020860161163b565b91505092915050565b6000813590506116f18161230a565b92915050565b6000815190506117068161230a565b92915050565b60008135905061171b81612321565b92915050565b6000806040838503121561173457600080fd5b600061174285828601611679565b9250506020611753858286016116e2565b9150509250929050565b60006020828403121561176f57600080fd5b600061177d8482850161168e565b91505092915050565b6000806000806080858703121561179c57600080fd5b600085013567ffffffffffffffff8111156117b657600080fd5b6117c2878288016116b8565b945050602085013567ffffffffffffffff8111156117df57600080fd5b6117eb878288016116b8565b93505060406117fc87828801611679565b925050606061180d878288016116e2565b91505092959194509250565b60008060008060008060008060006101208a8c03121561183857600080fd5b60008a013567ffffffffffffffff81111561185257600080fd5b61185e8c828d016116b8565b99505060208a013567ffffffffffffffff81111561187b57600080fd5b6118878c828d016116b8565b98505060406118988c828d01611679565b97505060606118a98c828d016116e2565b96505060806118ba8c828d016116e2565b95505060a06118cb8c828d016116e2565b94505060c06118dc8c828d0161170c565b93505060e06118ed8c828d016116a3565b9250506101006118ff8c828d016116a3565b9150509295985092959850929598565b60008060006060848603121561192457600080fd5b600084013567ffffffffffffffff81111561193e57600080fd5b61194a868287016116b8565b935050602084013567ffffffffffffffff81111561196757600080fd5b611973868287016116b8565b9250506040611984868287016116e2565b9150509250925092565b6000602082840312156119a057600080fd5b60006119ae848285016116e2565b91505092915050565b6000602082840312156119c957600080fd5b60006119d7848285016116f7565b91505092915050565b600080604083850312156119f357600080fd5b6000611a01858286016116e2565b925050602083013567ffffffffffffffff811115611a1e57600080fd5b611a2a858286016116b8565b9150509250929050565b611a3d81611fd1565b82525050565b611a4c81611fe3565b82525050565b611a5b81611fef565b82525050565b611a6a81612043565b82525050565b6000611a7b82611f99565b611a858185611fa4565b9350611a95818560208601612064565b611a9e816121ff565b840191505092915050565b6000611ab482611f99565b611abe8185611fc6565b9350611ace818560208601612064565b80840191505092915050565b60008154611ae781612097565b611af18186611fb5565b94506001821660008114611b0c5760018114611b1e57611b51565b60ff1983168652602086019350611b51565b611b2785611f84565b60005b83811015611b4957815481890152600182019150602081019050611b2a565b808801955050505b50505092915050565b60008154611b6781612097565b611b718186611fc6565b94506001821660008114611b8c5760018114611b9d57611bd0565b60ff19831686528186019350611bd0565b611ba685611f84565b60005b83811015611bc857815481890152600182019150602081019050611ba9565b838801955050505b50505092915050565b6000611be6602083611fb5565b9150611bf182612210565b602082019050919050565b6000611c09602c83611fb5565b9150611c1482612239565b604082019050919050565b6000611c2c601e83611fb5565b9150611c3782612288565b602082019050919050565b600061012083016000830151611c5b6000860182611d1c565b506020830151611c6e6020860182611d1c565b5060408301518482036040860152611c868282611a70565b91505060608301518482036060860152611ca08282611a70565b91505060808301518482036080860152611cba8282611a70565b91505060a0830151611ccf60a0860182611d1c565b5060c0830151611ce260c0860182611d1c565b5060e083015184820360e0860152611cfa8282611a70565b915050610100830151611d11610100860182611a61565b508091505092915050565b611d258161202c565b82525050565b611d348161202c565b82525050565b611d4381612036565b82525050565b6000611d558284611aa9565b915081905092915050565b6000611d6c8284611b5a565b915081905092915050565b6000602082019050611d8c6000830184611a34565b92915050565b6000606082019050611da76000830186611a34565b611db46020830185611a34565b611dc16040830184611d2b565b949350505050565b600060e082019050611dde600083018a611a34565b611deb6020830189611a34565b611df86040830188611d2b565b611e056060830187611d2b565b611e126080830186611d3a565b611e1f60a0830185611a52565b611e2c60c0830184611a52565b98975050505050505050565b6000602082019050611e4d6000830184611a43565b92915050565b60006020820190508181036000830152611e6c81611bd9565b9050919050565b60006020820190508181036000830152611e8c81611bfc565b9050919050565b60006020820190508181036000830152611eac81611c1f565b9050919050565b60006020820190508181036000830152611ecd8184611c42565b905092915050565b6000604082019050611eea6000830185611d2b565b8181036020830152611efc8184611ada565b90509392505050565b6000604082019050611f1a6000830185611d2b565b611f276020830184611d2b565b9392505050565b6000611f38611f49565b9050611f4482826120c9565b919050565b6000604051905090565b600067ffffffffffffffff821115611f6e57611f6d6121d0565b5b611f77826121ff565b9050602081019050919050565b60008190508160005260206000209050919050565b600081519050919050565b600082825260208201905092915050565b600082825260208201905092915050565b600081905092915050565b6000611fdc8261200c565b9050919050565b60008115159050919050565b6000819050919050565b6000819050612007826122b1565b919050565b600073ffffffffffffffffffffffffffffffffffffffff82169050919050565b6000819050919050565b600060ff82169050919050565b600061204e82611ff9565b9050919050565b82818337600083830152505050565b60005b83811015612082578082015181840152602081019050612067565b83811115612091576000848401525b50505050565b600060028204905060018216806120af57607f821691505b602082108114156120c3576120c26121a1565b5b50919050565b6120d2826121ff565b810181811067ffffffffffffffff821117156120f1576120f06121d0565b5b80604052505050565b60006121058261202c565b91507fffffffffffffffffffffffffffffffffffffffffffffffffffffffffffffffff82141561213857612137612143565b5b600182019050919050565b7f4e487b7100000000000000000000000000000000000000000000000000000000600052601160045260246000fd5b7f4e487b7100000000000000000000000000000000000000000000000000000000600052602160045260246000fd5b7f4e487b7100000000000000000000000000000000000000000000000000000000600052602260045260246000fd5b7f4e487b7100000000000000000000000000000000000000000000000000000000600052604160045260246000fd5b6000601f19601f8301169050919050565b7f45524332303a207472616e7366657246726f6d20746f6b656e206661696c6564600082015250565b7f45524332303a20616d6f756e742069732067726561746572207468616e20637560008201527f7272656e7442616c616e63650000000000000000000000000000000000000000602082015250565b7f76616c75652069732067726561746572207468616e20617070726f76616c0000600082015250565b600381106122c2576122c1612172565b5b50565b6122ce81611fd1565b81146122d957600080fd5b50565b6122e581611fe3565b81146122f057600080fd5b50565b6122fc81611fef565b811461230757600080fd5b50565b6123138161202c565b811461231e57600080fd5b50565b61232a81612036565b811461233557600080fd5b5056fea2646970667358221220ad62405e7a4c8ec93ec8bb78c9edc930df8aa9c40c22f1bc448f636cf8fd13c664736f6c63430008040033",
  "linkReferences": {},
  "deployedLinkReferences": {}
}