{
  "_format": "hh-sol-artifact-1",
  "contractName": "ThrowDice",
  "sourceName": "contracts/ThrowDice.sol",
  "abi": [
    {
      "inputs": [
        {
          "internalType": "address",
          "name": "_betSlipsAddr",
          "type": "address"
        }
      ],
      "stateMutability": "nonpayable",
      "type": "constructor"
    },
    {
      "anonymous": false,
      "inputs": [
        {
          "indexed": true,
          "internalType": "address",
          "name": "previousOwner",
          "type": "address"
        },
        {
          "indexed": true,
          "internalType": "address",
          "name": "newOwner",
          "type": "address"
        }
      ],
      "name": "OwnershipTransferred",
      "type": "event"
    },
    {
      "inputs": [],
      "name": "betSlipsAddr",
      "outputs": [
        {
          "internalType": "address payable",
          "name": "",
          "type": "address"
        }
      ],
      "stateMutability": "view",
      "type": "function"
    },
    {
      "inputs": [
        {
          "internalType": "uint256",
          "name": "playerNumber",
          "type": "uint256"
        },
        {
          "internalType": "uint8",
          "name": "diceChoice",
          "type": "uint8"
        }
      ],
      "name": "getOdds",
      "outputs": [
        {
          "internalType": "uint256",
          "name": "",
          "type": "uint256"
        }
      ],
      "stateMutability": "view",
      "type": "function"
    },
    {
      "inputs": [],
      "name": "getRtp",
      "outputs": [
        {
          "internalType": "uint256",
          "name": "",
          "type": "uint256"
        }
      ],
      "stateMutability": "view",
      "type": "function"
    },
    {
      "inputs": [],
      "name": "owner",
      "outputs": [
        {
          "internalType": "address",
          "name": "",
          "type": "address"
        }
      ],
      "stateMutability": "view",
      "type": "function"
    },
    {
      "inputs": [
        {
          "internalType": "uint256",
          "name": "betAmount",
          "type": "uint256"
        },
        {
          "internalType": "uint256",
          "name": "playerNumber",
          "type": "uint256"
        },
        {
          "internalType": "string",
          "name": "choice",
          "type": "string"
        },
        {
          "internalType": "string",
          "name": "seedHash",
          "type": "string"
        },
        {
          "internalType": "address",
          "name": "token",
          "type": "address"
        }
      ],
      "name": "placeBet",
      "outputs": [],
      "stateMutability": "nonpayable",
      "type": "function"
    },
    {
      "inputs": [
        {
          "internalType": "uint256",
          "name": "betAmount",
          "type": "uint256"
        },
        {
          "internalType": "uint256",
          "name": "playerNumber",
          "type": "uint256"
        },
        {
          "internalType": "string",
          "name": "choice",
          "type": "string"
        },
        {
          "internalType": "string",
          "name": "seedHash",
          "type": "string"
        },
        {
          "internalType": "address",
          "name": "token",
          "type": "address"
        },
        {
          "internalType": "uint256",
          "name": "deadline",
          "type": "uint256"
        },
        {
          "internalType": "uint8",
          "name": "v",
          "type": "uint8"
        },
        {
          "internalType": "bytes32",
          "name": "r",
          "type": "bytes32"
        },
        {
          "internalType": "bytes32",
          "name": "s",
          "type": "bytes32"
        }
      ],
      "name": "placeBetWithPermit",
      "outputs": [],
      "stateMutability": "nonpayable",
      "type": "function"
    },
    {
      "inputs": [],
      "name": "renounceOwnership",
      "outputs": [],
      "stateMutability": "nonpayable",
      "type": "function"
    },
    {
      "inputs": [
        {
          "internalType": "uint256",
          "name": "betSlipId",
          "type": "uint256"
        },
        {
          "internalType": "address",
          "name": "player",
          "type": "address"
        },
        {
          "internalType": "string",
          "name": "seed",
          "type": "string"
        }
      ],
      "name": "revealSeed",
      "outputs": [],
      "stateMutability": "nonpayable",
      "type": "function"
    },
    {
      "inputs": [
        {
          "internalType": "uint256",
          "name": "rtp",
          "type": "uint256"
        }
      ],
      "name": "setRtp",
      "outputs": [],
      "stateMutability": "nonpayable",
      "type": "function"
    },
    {
      "inputs": [
        {
          "internalType": "address",
          "name": "newOwner",
          "type": "address"
        }
      ],
      "name": "transferOwnership",
      "outputs": [],
      "stateMutability": "nonpayable",
      "type": "function"
    }
  ],
  "bytecode": "0x608060405260616002553480156200001657600080fd5b5060405162001cb838038062001cb883398181016040528101906200003c919062000187565b6200005c62000050620000a460201b60201c565b620000ac60201b60201c565b80600160006101000a81548173ffffffffffffffffffffffffffffffffffffffff021916908373ffffffffffffffffffffffffffffffffffffffff1602179055505062000201565b600033905090565b60008060009054906101000a900473ffffffffffffffffffffffffffffffffffffffff169050816000806101000a81548173ffffffffffffffffffffffffffffffffffffffff021916908373ffffffffffffffffffffffffffffffffffffffff1602179055508173ffffffffffffffffffffffffffffffffffffffff168173ffffffffffffffffffffffffffffffffffffffff167f8be0079c531659141344cd1fd0a4f28419497f9722a3daafe3b4186f6b6457e060405160405180910390a35050565b6000815190506200018181620001e7565b92915050565b6000602082840312156200019a57600080fd5b6000620001aa8482850162000170565b91505092915050565b6000620001c082620001c7565b9050919050565b600073ffffffffffffffffffffffffffffffffffffffff82169050919050565b620001f281620001b3565b8114620001fe57600080fd5b50565b611aa780620002116000396000f3fe608060405234801561001057600080fd5b506004361061009e5760003560e01c8063b62aaa2111610066578063b62aaa2114610135578063d1743fc114610153578063f2fde38b1461016f578063f303773e1461018b578063f6289d4f146101a75761009e565b80631664eb8f146100a3578063552ee56c146100bf578063715018a6146100dd57806378dc90be146100e75780638da5cb5b14610117575b600080fd5b6100bd60048036038101906100b89190610e8d565b6101c3565b005b6100c7610278565b6040516100d4919061137b565b60405180910390f35b6100e561029e565b005b61010160048036038101906100fc9190611091565b610326565b60405161010e9190611576565b60405180910390f35b61011f610408565b60405161012c9190611360565b60405180910390f35b61013d610431565b60405161014a9190611576565b60405180910390f35b61016d60048036038101906101689190610ef4565b61043b565b005b61018960048036038101906101849190610e12565b610793565b005b6101a560048036038101906101a09190610e64565b61088b565b005b6101c160048036038101906101bc9190610f9b565b610911565b005b600160009054906101000a900473ffffffffffffffffffffffffffffffffffffffff1673ffffffffffffffffffffffffffffffffffffffff1663cef4c9c584836040518363ffffffff1660e01b8152600401610220929190611591565b602060405180830381600087803b15801561023a57600080fd5b505af115801561024e573d6000803e3d6000fd5b505050506040513d601f19601f820116820180604052508101906102729190610e3b565b50505050565b600160009054906101000a900473ffffffffffffffffffffffffffffffffffffffff1681565b6102a6610c75565b73ffffffffffffffffffffffffffffffffffffffff166102c4610408565b73ffffffffffffffffffffffffffffffffffffffff161461031a576040517f08c379a000000000000000000000000000000000000000000000000000000000815260040161031190611556565b60405180910390fd5b6103246000610c7d565b565b6000806001905060006001811115610367577f4e487b7100000000000000000000000000000000000000000000000000000000600052602160045260246000fd5b60ff168360ff1614156103885783606361038191906116da565b90506103df565b6001808111156103c1577f4e487b7100000000000000000000000000000000000000000000000000000000600052602160045260246000fd5b60ff168360ff1614156103de576000846103db91906116da565b90505b5b60008160646002546103f19190611680565b6103fb919061164f565b9050809250505092915050565b60008060009054906101000a900473ffffffffffffffffffffffffffffffffffffffff16905090565b6000600254905090565b60405160200161044a9061134b565b6040516020818303038152906040528051906020012083604051602001610471919061131f565b6040516020818303038152906040528051906020012014806104dc575060405160200161049d90611336565b60405160208183030381529060405280519060200120836040516020016104c4919061131f565b60405160208183030381529060405280519060200120145b61051b576040517f08c379a000000000000000000000000000000000000000000000000000000000815260040161051290611516565b60405180910390fd5b600060405160200161052c9061134b565b6040516020818303038152906040528051906020012084604051602001610553919061131f565b6040516020818303038152906040528051906020012014156105c9576000905060048510158015610585575060628511155b6105c4576040517f08c379a00000000000000000000000000000000000000000000000000000000081526004016105bb90611536565b60405180910390fd5b610672565b6040516020016105d890611336565b60405160208183030381529060405280519060200120846040516020016105ff919061131f565b6040516020818303038152906040528051906020012014156106715760019050600185101580156106315750605f8511155b610670576040517f08c379a0000000000000000000000000000000000000000000000000000000008152600401610667906114d6565b60405180910390fd5b5b5b6000604051806040016040528086815260200187815250905060006106cf878460018111156106ca577f4e487b7100000000000000000000000000000000000000000000000000000000600052602160045260246000fd5b610326565b9050600160009054906101000a900473ffffffffffffffffffffffffffffffffffffffff1673ffffffffffffffffffffffffffffffffffffffff1663d1ec3bb833868b868a876040518763ffffffff1660e01b815260040161073696959493929190611396565b602060405180830381600087803b15801561075057600080fd5b505af1158015610764573d6000803e3d6000fd5b505050506040513d601f19601f820116820180604052508101906107889190610e3b565b505050505050505050565b61079b610c75565b73ffffffffffffffffffffffffffffffffffffffff166107b9610408565b73ffffffffffffffffffffffffffffffffffffffff161461080f576040517f08c379a000000000000000000000000000000000000000000000000000000000815260040161080690611556565b60405180910390fd5b600073ffffffffffffffffffffffffffffffffffffffff168173ffffffffffffffffffffffffffffffffffffffff16141561087f576040517f08c379a0000000000000000000000000000000000000000000000000000000008152600401610876906114f6565b60405180910390fd5b61088881610c7d565b50565b610893610c75565b73ffffffffffffffffffffffffffffffffffffffff166108b1610408565b73ffffffffffffffffffffffffffffffffffffffff1614610907576040517f08c379a00000000000000000000000000000000000000000000000000000000081526004016108fe90611556565b60405180910390fd5b8060028190555050565b6040516020016109209061134b565b6040516020818303038152906040528051906020012087604051602001610947919061131f565b6040516020818303038152906040528051906020012014806109b2575060405160200161097390611336565b604051602081830303815290604052805190602001208760405160200161099a919061131f565b60405160208183030381529060405280519060200120145b6109f1576040517f08c379a00000000000000000000000000000000000000000000000000000000081526004016109e890611516565b60405180910390fd5b6000604051602001610a029061134b565b6040516020818303038152906040528051906020012088604051602001610a29919061131f565b604051602081830303815290604052805190602001201415610a9f576000905060018910158015610a5b5750605f8911155b610a9a576040517f08c379a0000000000000000000000000000000000000000000000000000000008152600401610a9190611536565b60405180910390fd5b610b48565b604051602001610aae90611336565b6040516020818303038152906040528051906020012088604051602001610ad5919061131f565b604051602081830303815290604052805190602001201415610b47576001905060048910158015610b07575060628911155b610b46576040517f08c379a0000000000000000000000000000000000000000000000000000000008152600401610b3d906114d6565b60405180910390fd5b5b5b600060405180604001604052808a81526020018b81525090506000610ba58b846001811115610ba0577f4e487b7100000000000000000000000000000000000000000000000000000000600052602160045260246000fd5b610326565b9050600160009054906101000a900473ffffffffffffffffffffffffffffffffffffffff1673ffffffffffffffffffffffffffffffffffffffff1663f2324f7e338a8f868e878e8e8e8e6040518b63ffffffff1660e01b8152600401610c149a99989796959493929190611418565b602060405180830381600087803b158015610c2e57600080fd5b505af1158015610c42573d6000803e3d6000fd5b505050506040513d601f19601f82011682018060405250810190610c669190610e3b565b50505050505050505050505050565b600033905090565b60008060009054906101000a900473ffffffffffffffffffffffffffffffffffffffff169050816000806101000a81548173ffffffffffffffffffffffffffffffffffffffff021916908373ffffffffffffffffffffffffffffffffffffffff1602179055508173ffffffffffffffffffffffffffffffffffffffff168173ffffffffffffffffffffffffffffffffffffffff167f8be0079c531659141344cd1fd0a4f28419497f9722a3daafe3b4186f6b6457e060405160405180910390a35050565b6000610d54610d4f846115e6565b6115c1565b905082815260208101848484011115610d6c57600080fd5b610d7784828561177f565b509392505050565b600081359050610d8e816119fe565b92915050565b600081519050610da381611a15565b92915050565b600081359050610db881611a2c565b92915050565b600082601f830112610dcf57600080fd5b8135610ddf848260208601610d41565b91505092915050565b600081359050610df781611a43565b92915050565b600081359050610e0c81611a5a565b92915050565b600060208284031215610e2457600080fd5b6000610e3284828501610d7f565b91505092915050565b600060208284031215610e4d57600080fd5b6000610e5b84828501610d94565b91505092915050565b600060208284031215610e7657600080fd5b6000610e8484828501610de8565b91505092915050565b600080600060608486031215610ea257600080fd5b6000610eb086828701610de8565b9350506020610ec186828701610d7f565b925050604084013567ffffffffffffffff811115610ede57600080fd5b610eea86828701610dbe565b9150509250925092565b600080600080600060a08688031215610f0c57600080fd5b6000610f1a88828901610de8565b9550506020610f2b88828901610de8565b945050604086013567ffffffffffffffff811115610f4857600080fd5b610f5488828901610dbe565b935050606086013567ffffffffffffffff811115610f7157600080fd5b610f7d88828901610dbe565b9250506080610f8e88828901610d7f565b9150509295509295909350565b60008060008060008060008060006101208a8c031215610fba57600080fd5b6000610fc88c828d01610de8565b9950506020610fd98c828d01610de8565b98505060408a013567ffffffffffffffff811115610ff657600080fd5b6110028c828d01610dbe565b97505060608a013567ffffffffffffffff81111561101f57600080fd5b61102b8c828d01610dbe565b965050608061103c8c828d01610d7f565b95505060a061104d8c828d01610de8565b94505060c061105e8c828d01610dfd565b93505060e061106f8c828d01610da9565b9250506101006110818c828d01610da9565b9150509295985092959850929598565b600080604083850312156110a457600080fd5b60006110b285828601610de8565b92505060206110c385828601610dfd565b9150509250929050565b6110d681611720565b82525050565b6110e58161170e565b82525050565b6110f48161173e565b82525050565b600061110582611617565b61110f8185611622565b935061111f81856020860161178e565b6111288161187f565b840191505092915050565b600061113e82611617565b6111488185611633565b935061115881856020860161178e565b6111618161187f565b840191505092915050565b600061117782611617565b6111818185611644565b935061119181856020860161178e565b80840191505092915050565b60006111aa600483611633565b91506111b582611890565b602082019050919050565b60006111cd600f83611633565b91506111d8826118b9565b602082019050919050565b60006111f0602683611633565b91506111fb826118e2565b604082019050919050565b6000611213601683611633565b915061121e82611931565b602082019050919050565b6000611236600e83611633565b91506112418261195a565b602082019050919050565b6000611259602083611633565b915061126482611983565b602082019050919050565b600061127c600583611644565b9150611287826119ac565b600582019050919050565b600061129f600483611644565b91506112aa826119d5565b600482019050919050565b600060408301600083015184820360008601526112d282826110fa565b91505060208301516112e760208601826112f2565b508091505092915050565b6112fb81611768565b82525050565b61130a81611768565b82525050565b61131981611772565b82525050565b600061132b828461116c565b915081905092915050565b60006113418261126f565b9150819050919050565b600061135682611292565b9150819050919050565b600060208201905061137560008301846110dc565b92915050565b600060208201905061139060008301846110cd565b92915050565b600060e0820190506113ab60008301896110dc565b6113b860208301886110dc565b6113c56040830187611301565b81810360608301526113d68161119d565b905081810360808301526113ea81866112b5565b905081810360a08301526113fe8185611133565b905061140d60c0830184611301565b979650505050505050565b60006101608201905061142e600083018d6110dc565b61143b602083018c6110dc565b611448604083018b611301565b81810360608301526114598161119d565b9050818103608083015261146d818a6112b5565b905081810360a08301526114818189611133565b905061149060c0830188611301565b61149d60e0830187611301565b6114ab610100830186611310565b6114b96101208301856110eb565b6114c76101408301846110eb565b9b9a5050505050505050505050565b600060208201905081810360008301526114ef816111c0565b9050919050565b6000602082019050818103600083015261150f816111e3565b9050919050565b6000602082019050818103600083015261152f81611206565b9050919050565b6000602082019050818103600083015261154f81611229565b9050919050565b6000602082019050818103600083015261156f8161124c565b9050919050565b600060208201905061158b6000830184611301565b92915050565b60006040820190506115a66000830185611301565b81810360208301526115b88184611133565b90509392505050565b60006115cb6115dc565b90506115d782826117c1565b919050565b6000604051905090565b600067ffffffffffffffff82111561160157611600611850565b5b61160a8261187f565b9050602081019050919050565b600081519050919050565b600082825260208201905092915050565b600082825260208201905092915050565b600081905092915050565b600061165a82611768565b915061166583611768565b92508261167557611674611821565b5b828204905092915050565b600061168b82611768565b915061169683611768565b9250817fffffffffffffffffffffffffffffffffffffffffffffffffffffffffffffffff04831182151516156116cf576116ce6117f2565b5b828202905092915050565b60006116e582611768565b91506116f083611768565b925082821015611703576117026117f2565b5b828203905092915050565b600061171982611748565b9050919050565b600061172b82611748565b9050919050565b60008115159050919050565b6000819050919050565b600073ffffffffffffffffffffffffffffffffffffffff82169050919050565b6000819050919050565b600060ff82169050919050565b82818337600083830152505050565b60005b838110156117ac578082015181840152602081019050611791565b838111156117bb576000848401525b50505050565b6117ca8261187f565b810181811067ffffffffffffffff821117156117e9576117e8611850565b5b80604052505050565b7f4e487b7100000000000000000000000000000000000000000000000000000000600052601160045260246000fd5b7f4e487b7100000000000000000000000000000000000000000000000000000000600052601260045260246000fd5b7f4e487b7100000000000000000000000000000000000000000000000000000000600052604160045260246000fd5b6000601f19601f8301169050919050565b7f6469636500000000000000000000000000000000000000000000000000000000600082015250565b7f496e76616c696465204e756d6265720000000000000000000000000000000000600082015250565b7f4f776e61626c653a206e6577206f776e657220697320746865207a65726f206160008201527f6464726573730000000000000000000000000000000000000000000000000000602082015250565b7f5468652063686f69636520697320696e76616c69642e00000000000000000000600082015250565b7f496e76616c6964204e756d626572000000000000000000000000000000000000600082015250565b7f4f776e61626c653a2063616c6c6572206973206e6f7420746865206f776e6572600082015250565b7f554e444552000000000000000000000000000000000000000000000000000000600082015250565b7f4f56455200000000000000000000000000000000000000000000000000000000600082015250565b611a078161170e565b8114611a1257600080fd5b50565b611a1e81611732565b8114611a2957600080fd5b50565b611a358161173e565b8114611a4057600080fd5b50565b611a4c81611768565b8114611a5757600080fd5b50565b611a6381611772565b8114611a6e57600080fd5b5056fea2646970667358221220b0eed850f85e6d3c7beed578dda9d4b3b5e8b49969649e7cebdfe139be47e24e64736f6c63430008040033",
  "linkReferences": {},
  "deployedLinkReferences": {}
}