{
  "_format": "hh-sol-artifact-1",
  "contractName": "CarShop",
  "sourceName": "contracts/CarShop.sol",
  "abi": [
    {
      "inputs": [],
      "stateMutability": "nonpayable",
      "type": "constructor"
    },
    {
      "anonymous": false,
      "inputs": [
        {
          "indexed": false,
          "internalType": "uint256",
          "name": "_price",
          "type": "uint256"
        },
        {
          "indexed": false,
          "internalType": "address",
          "name": "_shopAddress",
          "type": "address"
        }
      ],
      "name": "ItemFullyPaid",
      "type": "event"
    },
    {
      "inputs": [
        {
          "internalType": "address",
          "name": "_addr",
          "type": "address"
        }
      ],
      "name": "addBuyer",
      "outputs": [],
      "stateMutability": "nonpayable",
      "type": "function"
    },
    {
      "inputs": [],
      "name": "getBalance",
      "outputs": [
        {
          "internalType": "uint256",
          "name": "",
          "type": "uint256"
        }
      ],
      "stateMutability": "view",
      "type": "function"
    },
    {
      "inputs": [
        {
          "internalType": "address",
          "name": "_addr",
          "type": "address"
        }
      ],
      "name": "getBuyer",
      "outputs": [
        {
          "internalType": "bool",
          "name": "",
          "type": "bool"
        }
      ],
      "stateMutability": "view",
      "type": "function"
    },
    {
      "inputs": [],
      "name": "nameCar",
      "outputs": [
        {
          "internalType": "string",
          "name": "",
          "type": "string"
        }
      ],
      "stateMutability": "view",
      "type": "function"
    },
    {
      "inputs": [],
      "name": "owner",
      "outputs": [
        {
          "internalType": "address",
          "name": "",
          "type": "address"
        }
      ],
      "stateMutability": "view",
      "type": "function"
    },
    {
      "inputs": [],
      "name": "price",
      "outputs": [
        {
          "internalType": "uint256",
          "name": "",
          "type": "uint256"
        }
      ],
      "stateMutability": "view",
      "type": "function"
    },
    {
      "inputs": [
        {
          "internalType": "string",
          "name": "_newName",
          "type": "string"
        }
      ],
      "name": "saleNewCar",
      "outputs": [],
      "stateMutability": "nonpayable",
      "type": "function"
    },
    {
      "inputs": [
        {
          "internalType": "uint256",
          "name": "newPrice",
          "type": "uint256"
        }
      ],
      "name": "setNewPrice",
      "outputs": [],
      "stateMutability": "nonpayable",
      "type": "function"
    },
    {
      "inputs": [],
      "name": "shopAddress",
      "outputs": [
        {
          "internalType": "address",
          "name": "",
          "type": "address"
        }
      ],
      "stateMutability": "view",
      "type": "function"
    },
    {
      "inputs": [],
      "name": "withdrawAll",
      "outputs": [],
      "stateMutability": "nonpayable",
      "type": "function"
    },
    {
      "stateMutability": "payable",
      "type": "receive"
    }
  ],
  "bytecode": "0x608060405260026001556040518060400160405280600f81526020017f506f727363686520436179656e6e6500000000000000000000000000000000008152506002908051906020019062000056929190620000ed565b503480156200006457600080fd5b5033600360006101000a81548173ffffffffffffffffffffffffffffffffffffffff021916908373ffffffffffffffffffffffffffffffffffffffff16021790555030600460006101000a81548173ffffffffffffffffffffffffffffffffffffffff021916908373ffffffffffffffffffffffffffffffffffffffff16021790555062000202565b828054620000fb906200019d565b90600052602060002090601f0160209004810192826200011f57600085556200016b565b82601f106200013a57805160ff19168380011785556200016b565b828001600101855582156200016b579182015b828111156200016a5782518255916020019190600101906200014d565b5b5090506200017a91906200017e565b5090565b5b80821115620001995760008160009055506001016200017f565b5090565b60006002820490506001821680620001b657607f821691505b60208210811415620001cd57620001cc620001d3565b5b50919050565b7f4e487b7100000000000000000000000000000000000000000000000000000000600052602260045260246000fd5b610f4d80620002126000396000f3fe6080604052600436106100955760003560e01c80639cfb96ff116100595780639cfb96ff146102e4578063a035b1fe1461030f578063a506a00b1461033a578063bbf8980314610363578063ee8cdd4e1461038c5761020a565b806312065fe01461020f57806322446fb81461023a5780635721e41914610265578063853828b6146102a25780638da5cb5b146102b95761020a565b3661020a576000803373ffffffffffffffffffffffffffffffffffffffff1673ffffffffffffffffffffffffffffffffffffffff16815260200190815260200160002060009054906101000a900460ff1680156100f457506001543411155b801561010d5750600460149054906101000a900460ff16155b61014c576040517f08c379a000000000000000000000000000000000000000000000000000000000815260040161014390610c65565b60405180910390fd5b600154600460009054906101000a900473ffffffffffffffffffffffffffffffffffffffff1673ffffffffffffffffffffffffffffffffffffffff16311415610208576001600460146101000a81548160ff0219169083151502179055507fdf0dd1937b9b962acf91922fa89d354e61e20db47de2039c52915395819c36f7600154600460009054906101000a900473ffffffffffffffffffffffffffffffffffffffff166040516101ff929190610ca0565b60405180910390a15b005b600080fd5b34801561021b57600080fd5b506102246103b5565b6040516102319190610c85565b60405180910390f35b34801561024657600080fd5b5061024f6103f6565b60405161025c9190610bed565b60405180910390f35b34801561027157600080fd5b5061028c60048036038101906102879190610aae565b61041c565b6040516102999190610c08565b60405180910390f35b3480156102ae57600080fd5b506102b7610501565b005b3480156102c557600080fd5b506102ce610676565b6040516102db9190610bed565b60405180910390f35b3480156102f057600080fd5b506102f961069c565b6040516103069190610c23565b60405180910390f35b34801561031b57600080fd5b5061032461072a565b6040516103319190610c85565b60405180910390f35b34801561034657600080fd5b50610361600480360381019061035c9190610ad7565b610730565b005b34801561036f57600080fd5b5061038a60048036038101906103859190610aae565b6107f5565b005b34801561039857600080fd5b506103b360048036038101906103ae9190610b18565b6108df565b005b6000600460009054906101000a900473ffffffffffffffffffffffffffffffffffffffff1673ffffffffffffffffffffffffffffffffffffffff1631905090565b600460009054906101000a900473ffffffffffffffffffffffffffffffffffffffff1681565b60003373ffffffffffffffffffffffffffffffffffffffff16600360009054906101000a900473ffffffffffffffffffffffffffffffffffffffff1673ffffffffffffffffffffffffffffffffffffffff16146104ae576040517f08c379a00000000000000000000000000000000000000000000000000000000081526004016104a590610c45565b60405180910390fd5b6000808373ffffffffffffffffffffffffffffffffffffffff1673ffffffffffffffffffffffffffffffffffffffff16815260200190815260200160002060009054906101000a900460ff169050919050565b3373ffffffffffffffffffffffffffffffffffffffff16600360009054906101000a900473ffffffffffffffffffffffffffffffffffffffff1673ffffffffffffffffffffffffffffffffffffffff1614801561056a5750600460149054906101000a900460ff165b80156105af57506000600460009054906101000a900473ffffffffffffffffffffffffffffffffffffffff1673ffffffffffffffffffffffffffffffffffffffff1631115b6105ee576040517f08c379a00000000000000000000000000000000000000000000000000000000081526004016105e590610c65565b60405180910390fd5b60003390508073ffffffffffffffffffffffffffffffffffffffff166108fc600460009054906101000a900473ffffffffffffffffffffffffffffffffffffffff1673ffffffffffffffffffffffffffffffffffffffff16319081150290604051600060405180830381858888f19350505050158015610672573d6000803e3d6000fd5b5050565b600360009054906101000a900473ffffffffffffffffffffffffffffffffffffffff1681565b600280546106a990610dc5565b80601f01602080910402602001604051908101604052809291908181526020018280546106d590610dc5565b80156107225780601f106106f757610100808354040283529160200191610722565b820191906000526020600020905b81548152906001019060200180831161070557829003601f168201915b505050505081565b60015481565b3373ffffffffffffffffffffffffffffffffffffffff16600360009054906101000a900473ffffffffffffffffffffffffffffffffffffffff1673ffffffffffffffffffffffffffffffffffffffff16146107c0576040517f08c379a00000000000000000000000000000000000000000000000000000000081526004016107b790610c45565b60405180910390fd5b6000600460146101000a81548160ff02191690831515021790555080600290805190602001906107f1929190610979565b5050565b3373ffffffffffffffffffffffffffffffffffffffff16600360009054906101000a900473ffffffffffffffffffffffffffffffffffffffff1673ffffffffffffffffffffffffffffffffffffffff1614610885576040517f08c379a000000000000000000000000000000000000000000000000000000000815260040161087c90610c45565b60405180910390fd5b60016000808373ffffffffffffffffffffffffffffffffffffffff1673ffffffffffffffffffffffffffffffffffffffff16815260200190815260200160002060006101000a81548160ff02191690831515021790555050565b3373ffffffffffffffffffffffffffffffffffffffff16600360009054906101000a900473ffffffffffffffffffffffffffffffffffffffff1673ffffffffffffffffffffffffffffffffffffffff161461096f576040517f08c379a000000000000000000000000000000000000000000000000000000000815260040161096690610c45565b60405180910390fd5b8060018190555050565b82805461098590610dc5565b90600052602060002090601f0160209004810192826109a757600085556109ee565b82601f106109c057805160ff19168380011785556109ee565b828001600101855582156109ee579182015b828111156109ed5782518255916020019190600101906109d2565b5b5090506109fb91906109ff565b5090565b5b80821115610a18576000816000905550600101610a00565b5090565b6000610a2f610a2a84610cee565b610cc9565b905082815260208101848484011115610a4757600080fd5b610a52848285610d83565b509392505050565b600081359050610a6981610ee9565b92915050565b600082601f830112610a8057600080fd5b8135610a90848260208601610a1c565b91505092915050565b600081359050610aa881610f00565b92915050565b600060208284031215610ac057600080fd5b6000610ace84828501610a5a565b91505092915050565b600060208284031215610ae957600080fd5b600082013567ffffffffffffffff811115610b0357600080fd5b610b0f84828501610a6f565b91505092915050565b600060208284031215610b2a57600080fd5b6000610b3884828501610a99565b91505092915050565b610b4a81610d3b565b82525050565b610b5981610d4d565b82525050565b6000610b6a82610d1f565b610b748185610d2a565b9350610b84818560208601610d92565b610b8d81610e86565b840191505092915050565b6000610ba5601583610d2a565b9150610bb082610e97565b602082019050919050565b6000610bc8600883610d2a565b9150610bd382610ec0565b602082019050919050565b610be781610d79565b82525050565b6000602082019050610c026000830184610b41565b92915050565b6000602082019050610c1d6000830184610b50565b92915050565b60006020820190508181036000830152610c3d8184610b5f565b905092915050565b60006020820190508181036000830152610c5e81610b98565b9050919050565b60006020820190508181036000830152610c7e81610bbb565b9050919050565b6000602082019050610c9a6000830184610bde565b92915050565b6000604082019050610cb56000830185610bde565b610cc26020830184610b41565b9392505050565b6000610cd3610ce4565b9050610cdf8282610df7565b919050565b6000604051905090565b600067ffffffffffffffff821115610d0957610d08610e57565b5b610d1282610e86565b9050602081019050919050565b600081519050919050565b600082825260208201905092915050565b6000610d4682610d59565b9050919050565b60008115159050919050565b600073ffffffffffffffffffffffffffffffffffffffff82169050919050565b6000819050919050565b82818337600083830152505050565b60005b83811015610db0578082015181840152602081019050610d95565b83811115610dbf576000848401525b50505050565b60006002820490506001821680610ddd57607f821691505b60208210811415610df157610df0610e28565b5b50919050565b610e0082610e86565b810181811067ffffffffffffffff82111715610e1f57610e1e610e57565b5b80604052505050565b7f4e487b7100000000000000000000000000000000000000000000000000000000600052602260045260246000fd5b7f4e487b7100000000000000000000000000000000000000000000000000000000600052604160045260246000fd5b6000601f19601f8301169050919050565b7f596f7520617265206e6f7420616e206f776e6572210000000000000000000000600082015250565b7f52656a6563746564000000000000000000000000000000000000000000000000600082015250565b610ef281610d3b565b8114610efd57600080fd5b50565b610f0981610d79565b8114610f1457600080fd5b5056fea2646970667358221220487dd91b414339f2665ed221590aa707ee0aacd152408c244edc39cf143fab3064736f6c63430008040033",
  "linkReferences": {},
  "deployedLinkReferences": {}
}